{
	"data": {
		"bytecode": {
			"linkReferences": {},
			"object": "608034605f57601f61179a38819003918201601f19168301916001600160401b03831184841017606357808492602094604052833981010312605f57515f80546001600160a01b0319163317905560025560405161172290816100788239f35b5f80fd5b634e487b7160e01b5f52604160045260245ffdfe60806040526004361015610011575f80fd5b5f3560e01c80634434dabb146110ed5780638da5cb5b146110c65780639426b5cf146110a9578063af600d3e14610313578063e2ec869c14610271578063eb1c1412146102265763fe20c9fd14610066575f80fd5b34610222576020366003190112610222576004356001600160a01b03811690819003610222575f546001600160a01b03166100a23382146113f1565b036101e5576001545f805b8281106101ae57506100be816114c4565b906100cc60405192836111e5565b8082526100db601f19916114c4565b015f5b8181106101975750505f915f5b81811061010457604051806101008582611392565b0390f35b61010d81611447565b9054600391821b1c6001600160a01b03165f9081526020919091526040812080545b808310610141575050506001016100eb565b9091956101576101518885611473565b5061157b565b61016182886116d8565b5261016c81876116d8565b505f1981146101835760018091019601919061012f565b634e487b7160e01b5f52601160045260245ffd5b6020906101a2611669565b828286010152016100de565b906101b882611447565b60018060a01b0391549060031b1c165f52600360205260405f2054810180911161018357906001016100ad565b60405162461bcd60e51b81526020600482015260156024820152742cb7ba9030b932903737ba103a34329037bbb732b960591b6044820152606490fd5b5f80fd5b346102225760203660031901126102225761023f611669565b50335f52600360205261010061025d61015160043560405f20611473565b60405191829160208352602083019061127f565b34610222576020366003190112610222576004356001600160a01b03811690819003610222576102ab60018060a01b035f541633146113f1565b5f52600360205260405f2080546102c1816114c4565b916102cf60405193846111e5565b81835260208301905f5260205f205f915b8383106102f557604051806101008782611392565b600e60206001926103058561157b565b8152019201920191906102e0565b610180366003190112610222576004356001600160401b0381116102225761033f903690600401611206565b6044356001600160401b0381116102225761035e903690600401611206565b6084356001600160401b0381116102225761037d903690600401611206565b9160a4356001600160401b0381116102225761039d903690600401611206565b60c4356001600160401b038111610222576103bc903690600401611206565b60e4356001600160401b038111610222576103db903690600401611206565b610104356001600160401b038111610222576103fb903690600401611206565b90610124356001600160401b0381116102225761041c903690600401611206565b92610144356001600160401b0381116102225761043d903690600401611206565b94610164356001600160401b0381116102225761045e903690600401611206565b98600254340361107157335f52600360205260405f205415611031575b604051986104888a6111c9565b338a5260208a0198895260408a0190602435825260608b0190815260808b0191606435835260a08c0193845260c08c0194855260e08c019586526101008c019687526101208c019788526101408c019889526101608c01998a526101808c019c8d526101a08c019a428c52335f52600360205260405f208054600160401b81101561095c5761051c91600182018155611473565b9d909d61101e57518d546001600160a01b0319166001600160a01b0391909116178d5551805160018e01916001600160401b03821161095c578190610561845461148c565b601f8111610fce575b50602090601f8311600114610f6b575f92610f60575b50508160011b915f199060031b1c19161790555b5160028c015551805160038c01916001600160401b03821161095c5781906105bc845461148c565b601f8111610f10575b50602090601f8311600114610ead575f92610ea2575b50508160011b915f199060031b1c19161790555b5160048a015551805160058a01916001600160401b03821161095c578190610617845461148c565b601f8111610e52575b50602090601f8311600114610def575f92610de4575b50508160011b915f199060031b1c19161790555b51805160068901916001600160401b03821161095c57819061066c845461148c565b601f8111610d94575b50602090601f8311600114610d31575f92610d26575b50508160011b915f199060031b1c19161790555b51805160078801916001600160401b03821161095c5781906106c1845461148c565b601f8111610cd6575b50602090601f8311600114610c73575f92610c68575b50508160011b915f199060031b1c19161790555b51805160088701916001600160401b03821161095c578190610716845461148c565b601f8111610c18575b50602090601f8311600114610bb5575f92610baa575b50508160011b915f199060031b1c19161790555b51805160098601916001600160401b03821161095c57819061076b845461148c565b601f8111610b5a575b50602090601f8311600114610af7575f92610aec575b50508160011b915f199060031b1c19161790555b518051600a8501916001600160401b03821161095c5781906107c0845461148c565b601f8111610a9c575b50602090601f8311600114610a39575f92610a2e575b50508160011b915f199060031b1c19161790555b518051600b8401916001600160401b03821161095c578190610815845461148c565b601f81116109de575b50602090601f831160011461097b575f92610970575b50508160011b915f199060031b1c19161790555b600c820192519283516001600160401b03811161095c57610869825461148c565b601f8111610917575b506020601f82116001146108b2578190600d95965f926108a7575b50508160011b915f199060031b1c19161790555b51910155005b01519050868061088d565b601f19821695835f52815f20965f5b8181106108ff575091600d9697918460019594106108e7575b505050811b0190556108a1565b01515f1960f88460031b161c191690558680806108da565b838301518955600190980197602093840193016108c1565b825f5260205f20601f830160051c81019160208410610952575b601f0160051c01905b8181106109475750610872565b5f815560010161093a565b9091508190610931565b634e487b7160e01b5f52604160045260245ffd5b015190508680610834565b5f8581528281209350601f198516905b8181106109c657509084600195949392106109ae575b505050811b019055610848565b01515f1960f88460031b161c191690558680806109a1565b9293602060018192878601518155019501930161098b565b909150835f5260205f20601f840160051c81019160208510610a24575b90601f859493920160051c01905b818110610a16575061081e565b5f8155849350600101610a09565b90915081906109fb565b0151905087806107df565b5f8581528281209350601f198516905b818110610a845750908460019594939210610a6c575b505050811b0190556107f3565b01515f1960f88460031b161c19169055878080610a5f565b92936020600181928786015181550195019301610a49565b909150835f5260205f20601f840160051c81019160208510610ae2575b90601f859493920160051c01905b818110610ad457506107c9565b5f8155849350600101610ac7565b9091508190610ab9565b01519050888061078a565b5f8581528281209350601f198516905b818110610b425750908460019594939210610b2a575b505050811b01905561079e565b01515f1960f88460031b161c19169055888080610b1d565b92936020600181928786015181550195019301610b07565b909150835f5260205f20601f840160051c81019160208510610ba0575b90601f859493920160051c01905b818110610b925750610774565b5f8155849350600101610b85565b9091508190610b77565b015190508980610735565b5f8581528281209350601f198516905b818110610c005750908460019594939210610be8575b505050811b019055610749565b01515f1960f88460031b161c19169055898080610bdb565b92936020600181928786015181550195019301610bc5565b909150835f5260205f20601f840160051c81019160208510610c5e575b90601f859493920160051c01905b818110610c50575061071f565b5f8155849350600101610c43565b9091508190610c35565b015190508a806106e0565b5f8581528281209350601f198516905b818110610cbe5750908460019594939210610ca6575b505050811b0190556106f4565b01515f1960f88460031b161c191690558a8080610c99565b92936020600181928786015181550195019301610c83565b909150835f5260205f20601f840160051c81019160208510610d1c575b90601f859493920160051c01905b818110610d0e57506106ca565b5f8155849350600101610d01565b9091508190610cf3565b015190508b8061068b565b5f8581528281209350601f198516905b818110610d7c5750908460019594939210610d64575b505050811b01905561069f565b01515f1960f88460031b161c191690558b8080610d57565b92936020600181928786015181550195019301610d41565b909150835f5260205f20601f840160051c81019160208510610dda575b90601f859493920160051c01905b818110610dcc5750610675565b5f8155849350600101610dbf565b9091508190610db1565b015190508c80610636565b5f8581528281209350601f198516905b818110610e3a5750908460019594939210610e22575b505050811b01905561064a565b01515f1960f88460031b161c191690558c8080610e15565b92936020600181928786015181550195019301610dff565b909150835f5260205f20601f840160051c81019160208510610e98575b90601f859493920160051c01905b818110610e8a5750610620565b5f8155849350600101610e7d565b9091508190610e6f565b015190508e806105db565b5f8581528281209350601f198516905b818110610ef85750908460019594939210610ee0575b505050811b0190556105ef565b01515f1960f88460031b161c191690558e8080610ed3565b92936020600181928786015181550195019301610ebd565b909150835f5260205f20601f840160051c81019160208510610f56575b90601f859493920160051c01905b818110610f4857506105c5565b5f8155849350600101610f3b565b9091508190610f2d565b015190505f80610580565b5f8581528281209350601f198516905b818110610fb65750908460019594939210610f9e575b505050811b019055610594565b01515f1960f88460031b161c191690555f8080610f91565b92936020600181928786015181550195019301610f7b565b909150835f5260205f20601f840160051c81019160208510611014575b90601f859493920160051c01905b818110611006575061056a565b5f8155849350600101610ff9565b9091508190610feb565b634e487b7160e01b5f525f60045260245ffd5b600154600160401b81101561095c578060016110509201600155611447565b81546001600160a01b0360039290921b91821b19163390911b17905561047b565b60405162461bcd60e51b815260206004820152601060248201526f125b98dbdc9c9958dd08105b5bdd5b9d60821b6044820152606490fd5b34610222575f366003190112610222576020600254604051908152f35b34610222575f366003190112610222575f546040516001600160a01b039091168152602090f35b34610222575f3660031901126102225761111160018060a01b035f541633146113f1565b6040518060206001549283815201809260015f527fb10e2d527612073b26eecdfd717e6a320cf44b4afac2b0732d9fcbe2b7fa0cf6905f5b8181106111aa575050508161115f9103826111e5565b604051918291602083019060208452518091526040830191905f5b818110611188575050500390f35b82516001600160a01b031684528594506020938401939092019160010161117a565b82546001600160a01b0316845260209093019260019283019201611149565b6101c081019081106001600160401b0382111761095c57604052565b90601f801991011681019081106001600160401b0382111761095c57604052565b81601f82011215610222578035906001600160401b03821161095c576040519261123a601f8401601f1916602001856111e5565b8284526020838301011161022257815f926020809301838601378301015290565b805180835260209291819084018484015e5f828201840152601f01601f1916010190565b906101a08061138961137561136161134d6113396113256113136113016112e48b60608e60018060a01b0381511683526112ca60208201516101c060208601526101c085019061125b565b9260408083015191015201518d606081840391015261125b565b60808d015160808d015260a08d01518c60a081840391015261125b565b60c08c01518b820360c08d015261125b565b60e08b01518a820360e08c015261125b565b6101008a01518982036101008b015261125b565b6101208901518882036101208a015261125b565b61014088015187820361014089015261125b565b61016087015186820361016088015261125b565b61018086015185820361018087015261125b565b93015191015290565b602081016020825282518091526040820191602060408360051b8301019401925f915b8383106113c457505050505090565b90919293946020806113e2600193603f19868203018752895161127f565b970193019301919392906113b5565b156113f857565b60405162461bcd60e51b815260206004820152602160248201527f4f6e6c79206f776e65722063616e2063616c6c20746869732066756e6374696f6044820152603760f91b6064820152608490fd5b60015481101561145f5760015f5260205f2001905f90565b634e487b7160e01b5f52603260045260245ffd5b805482101561145f575f52600e60205f20910201905f90565b90600182811c921680156114ba575b60208310146114a657565b634e487b7160e01b5f52602260045260245ffd5b91607f169161149b565b6001600160401b03811161095c5760051b60200190565b9060405191825f8254926114ee8461148c565b80845293600181169081156115595750600114611515575b50611513925003836111e5565b565b90505f9291925260205f20905f915b81831061153d575050906020611513928201015f611506565b6020919350806001915483858901015201910190918492611524565b90506020925061151394915060ff191682840152151560051b8201015f611506565b90604051611588816111c9565b82546001600160a01b031681529182906101a090600d906115ab600182016114db565b6020850152600281015460408501526115c6600382016114db565b6060850152600481015460808501526115e1600582016114db565b60a08501526115f2600682016114db565b60c0850152611603600782016114db565b60e0850152611614600882016114db565b610100850152611626600982016114db565b610120850152611638600a82016114db565b61014085015261164a600b82016114db565b61016085015261165c600c82016114db565b6101808501520154910152565b60405190611676826111c9565b5f6101a08382815260606020820152826040820152606080820152826080820152606060a0820152606060c0820152606060e0820152606061010082015260606101208201526060610140820152606061016082015260606101808201520152565b805182101561145f5760209160051b01019056fea26469706673582212202f9893b9a16d7b35be6f7a1da6766c59e463deee200d5c5e2ae42acc69738d2564736f6c634300081a0033",
			"opcodes": "PUSH1 0x80 CALLVALUE PUSH1 0x5F JUMPI PUSH1 0x1F PUSH2 0x179A CODESIZE DUP2 SWAP1 SUB SWAP2 DUP3 ADD PUSH1 0x1F NOT AND DUP4 ADD SWAP2 PUSH1 0x1 PUSH1 0x1 PUSH1 0x40 SHL SUB DUP4 GT DUP5 DUP5 LT OR PUSH1 0x63 JUMPI DUP1 DUP5 SWAP3 PUSH1 0x20 SWAP5 PUSH1 0x40 MSTORE DUP4 CODECOPY DUP2 ADD SUB SLT PUSH1 0x5F JUMPI MLOAD PUSH0 DUP1 SLOAD PUSH1 0x1 PUSH1 0x1 PUSH1 0xA0 SHL SUB NOT AND CALLER OR SWAP1 SSTORE PUSH1 0x2 SSTORE PUSH1 0x40 MLOAD PUSH2 0x1722 SWAP1 DUP2 PUSH2 0x78 DUP3 CODECOPY RETURN JUMPDEST PUSH0 DUP1 REVERT JUMPDEST PUSH4 0x4E487B71 PUSH1 0xE0 SHL PUSH0 MSTORE PUSH1 0x41 PUSH1 0x4 MSTORE PUSH1 0x24 PUSH0 REVERT INVALID PUSH1 0x80 PUSH1 0x40 MSTORE PUSH1 0x4 CALLDATASIZE LT ISZERO PUSH2 0x11 JUMPI PUSH0 DUP1 REVERT JUMPDEST PUSH0 CALLDATALOAD PUSH1 0xE0 SHR DUP1 PUSH4 0x4434DABB EQ PUSH2 0x10ED JUMPI DUP1 PUSH4 0x8DA5CB5B EQ PUSH2 0x10C6 JUMPI DUP1 PUSH4 0x9426B5CF EQ PUSH2 0x10A9 JUMPI DUP1 PUSH4 0xAF600D3E EQ PUSH2 0x313 JUMPI DUP1 PUSH4 0xE2EC869C EQ PUSH2 0x271 JUMPI DUP1 PUSH4 0xEB1C1412 EQ PUSH2 0x226 JUMPI PUSH4 0xFE20C9FD EQ PUSH2 0x66 JUMPI PUSH0 DUP1 REVERT JUMPDEST CALLVALUE PUSH2 0x222 JUMPI PUSH1 0x20 CALLDATASIZE PUSH1 0x3 NOT ADD SLT PUSH2 0x222 JUMPI PUSH1 0x4 CALLDATALOAD PUSH1 0x1 PUSH1 0x1 PUSH1 0xA0 SHL SUB DUP2 AND SWAP1 DUP2 SWAP1 SUB PUSH2 0x222 JUMPI PUSH0 SLOAD PUSH1 0x1 PUSH1 0x1 PUSH1 0xA0 SHL SUB AND PUSH2 0xA2 CALLER DUP3 EQ PUSH2 0x13F1 JUMP JUMPDEST SUB PUSH2 0x1E5 JUMPI PUSH1 0x1 SLOAD PUSH0 DUP1 JUMPDEST DUP3 DUP2 LT PUSH2 0x1AE JUMPI POP PUSH2 0xBE DUP2 PUSH2 0x14C4 JUMP JUMPDEST SWAP1 PUSH2 0xCC PUSH1 0x40 MLOAD SWAP3 DUP4 PUSH2 0x11E5 JUMP JUMPDEST DUP1 DUP3 MSTORE PUSH2 0xDB PUSH1 0x1F NOT SWAP2 PUSH2 0x14C4 JUMP JUMPDEST ADD PUSH0 JUMPDEST DUP2 DUP2 LT PUSH2 0x197 JUMPI POP POP PUSH0 SWAP2 PUSH0 JUMPDEST DUP2 DUP2 LT PUSH2 0x104 JUMPI PUSH1 0x40 MLOAD DUP1 PUSH2 0x100 DUP6 DUP3 PUSH2 0x1392 JUMP JUMPDEST SUB SWAP1 RETURN JUMPDEST PUSH2 0x10D DUP2 PUSH2 0x1447 JUMP JUMPDEST SWAP1 SLOAD PUSH1 0x3 SWAP2 DUP3 SHL SHR PUSH1 0x1 PUSH1 0x1 PUSH1 0xA0 SHL SUB AND PUSH0 SWAP1 DUP2 MSTORE PUSH1 0x20 SWAP2 SWAP1 SWAP2 MSTORE PUSH1 0x40 DUP2 KECCAK256 DUP1 SLOAD JUMPDEST DUP1 DUP4 LT PUSH2 0x141 JUMPI POP POP POP PUSH1 0x1 ADD PUSH2 0xEB JUMP JUMPDEST SWAP1 SWAP2 SWAP6 PUSH2 0x157 PUSH2 0x151 DUP9 DUP6 PUSH2 0x1473 JUMP JUMPDEST POP PUSH2 0x157B JUMP JUMPDEST PUSH2 0x161 DUP3 DUP9 PUSH2 0x16D8 JUMP JUMPDEST MSTORE PUSH2 0x16C DUP2 DUP8 PUSH2 0x16D8 JUMP JUMPDEST POP PUSH0 NOT DUP2 EQ PUSH2 0x183 JUMPI PUSH1 0x1 DUP1 SWAP2 ADD SWAP7 ADD SWAP2 SWAP1 PUSH2 0x12F JUMP JUMPDEST PUSH4 0x4E487B71 PUSH1 0xE0 SHL PUSH0 MSTORE PUSH1 0x11 PUSH1 0x4 MSTORE PUSH1 0x24 PUSH0 REVERT JUMPDEST PUSH1 0x20 SWAP1 PUSH2 0x1A2 PUSH2 0x1669 JUMP JUMPDEST DUP3 DUP3 DUP7 ADD ADD MSTORE ADD PUSH2 0xDE JUMP JUMPDEST SWAP1 PUSH2 0x1B8 DUP3 PUSH2 0x1447 JUMP JUMPDEST PUSH1 0x1 DUP1 PUSH1 0xA0 SHL SUB SWAP2 SLOAD SWAP1 PUSH1 0x3 SHL SHR AND PUSH0 MSTORE PUSH1 0x3 PUSH1 0x20 MSTORE PUSH1 0x40 PUSH0 KECCAK256 SLOAD DUP2 ADD DUP1 SWAP2 GT PUSH2 0x183 JUMPI SWAP1 PUSH1 0x1 ADD PUSH2 0xAD JUMP JUMPDEST PUSH1 0x40 MLOAD PUSH3 0x461BCD PUSH1 0xE5 SHL DUP2 MSTORE PUSH1 0x20 PUSH1 0x4 DUP3 ADD MSTORE PUSH1 0x15 PUSH1 0x24 DUP3 ADD MSTORE PUSH21 0x2CB7BA9030B932903737BA103A34329037BBB732B9 PUSH1 0x59 SHL PUSH1 0x44 DUP3 ADD MSTORE PUSH1 0x64 SWAP1 REVERT JUMPDEST PUSH0 DUP1 REVERT JUMPDEST CALLVALUE PUSH2 0x222 JUMPI PUSH1 0x20 CALLDATASIZE PUSH1 0x3 NOT ADD SLT PUSH2 0x222 JUMPI PUSH2 0x23F PUSH2 0x1669 JUMP JUMPDEST POP CALLER PUSH0 MSTORE PUSH1 0x3 PUSH1 0x20 MSTORE PUSH2 0x100 PUSH2 0x25D PUSH2 0x151 PUSH1 0x4 CALLDATALOAD PUSH1 0x40 PUSH0 KECCAK256 PUSH2 0x1473 JUMP JUMPDEST PUSH1 0x40 MLOAD SWAP2 DUP3 SWAP2 PUSH1 0x20 DUP4 MSTORE PUSH1 0x20 DUP4 ADD SWAP1 PUSH2 0x127F JUMP JUMPDEST CALLVALUE PUSH2 0x222 JUMPI PUSH1 0x20 CALLDATASIZE PUSH1 0x3 NOT ADD SLT PUSH2 0x222 JUMPI PUSH1 0x4 CALLDATALOAD PUSH1 0x1 PUSH1 0x1 PUSH1 0xA0 SHL SUB DUP2 AND SWAP1 DUP2 SWAP1 SUB PUSH2 0x222 JUMPI PUSH2 0x2AB PUSH1 0x1 DUP1 PUSH1 0xA0 SHL SUB PUSH0 SLOAD AND CALLER EQ PUSH2 0x13F1 JUMP JUMPDEST PUSH0 MSTORE PUSH1 0x3 PUSH1 0x20 MSTORE PUSH1 0x40 PUSH0 KECCAK256 DUP1 SLOAD PUSH2 0x2C1 DUP2 PUSH2 0x14C4 JUMP JUMPDEST SWAP2 PUSH2 0x2CF PUSH1 0x40 MLOAD SWAP4 DUP5 PUSH2 0x11E5 JUMP JUMPDEST DUP2 DUP4 MSTORE PUSH1 0x20 DUP4 ADD SWAP1 PUSH0 MSTORE PUSH1 0x20 PUSH0 KECCAK256 PUSH0 SWAP2 JUMPDEST DUP4 DUP4 LT PUSH2 0x2F5 JUMPI PUSH1 0x40 MLOAD DUP1 PUSH2 0x100 DUP8 DUP3 PUSH2 0x1392 JUMP JUMPDEST PUSH1 0xE PUSH1 0x20 PUSH1 0x1 SWAP3 PUSH2 0x305 DUP6 PUSH2 0x157B JUMP JUMPDEST DUP2 MSTORE ADD SWAP3 ADD SWAP3 ADD SWAP2 SWAP1 PUSH2 0x2E0 JUMP JUMPDEST PUSH2 0x180 CALLDATASIZE PUSH1 0x3 NOT ADD SLT PUSH2 0x222 JUMPI PUSH1 0x4 CALLDATALOAD PUSH1 0x1 PUSH1 0x1 PUSH1 0x40 SHL SUB DUP2 GT PUSH2 0x222 JUMPI PUSH2 0x33F SWAP1 CALLDATASIZE SWAP1 PUSH1 0x4 ADD PUSH2 0x1206 JUMP JUMPDEST PUSH1 0x44 CALLDATALOAD PUSH1 0x1 PUSH1 0x1 PUSH1 0x40 SHL SUB DUP2 GT PUSH2 0x222 JUMPI PUSH2 0x35E SWAP1 CALLDATASIZE SWAP1 PUSH1 0x4 ADD PUSH2 0x1206 JUMP JUMPDEST PUSH1 0x84 CALLDATALOAD PUSH1 0x1 PUSH1 0x1 PUSH1 0x40 SHL SUB DUP2 GT PUSH2 0x222 JUMPI PUSH2 0x37D SWAP1 CALLDATASIZE SWAP1 PUSH1 0x4 ADD PUSH2 0x1206 JUMP JUMPDEST SWAP2 PUSH1 0xA4 CALLDATALOAD PUSH1 0x1 PUSH1 0x1 PUSH1 0x40 SHL SUB DUP2 GT PUSH2 0x222 JUMPI PUSH2 0x39D SWAP1 CALLDATASIZE SWAP1 PUSH1 0x4 ADD PUSH2 0x1206 JUMP JUMPDEST PUSH1 0xC4 CALLDATALOAD PUSH1 0x1 PUSH1 0x1 PUSH1 0x40 SHL SUB DUP2 GT PUSH2 0x222 JUMPI PUSH2 0x3BC SWAP1 CALLDATASIZE SWAP1 PUSH1 0x4 ADD PUSH2 0x1206 JUMP JUMPDEST PUSH1 0xE4 CALLDATALOAD PUSH1 0x1 PUSH1 0x1 PUSH1 0x40 SHL SUB DUP2 GT PUSH2 0x222 JUMPI PUSH2 0x3DB SWAP1 CALLDATASIZE SWAP1 PUSH1 0x4 ADD PUSH2 0x1206 JUMP JUMPDEST PUSH2 0x104 CALLDATALOAD PUSH1 0x1 PUSH1 0x1 PUSH1 0x40 SHL SUB DUP2 GT PUSH2 0x222 JUMPI PUSH2 0x3FB SWAP1 CALLDATASIZE SWAP1 PUSH1 0x4 ADD PUSH2 0x1206 JUMP JUMPDEST SWAP1 PUSH2 0x124 CALLDATALOAD PUSH1 0x1 PUSH1 0x1 PUSH1 0x40 SHL SUB DUP2 GT PUSH2 0x222 JUMPI PUSH2 0x41C SWAP1 CALLDATASIZE SWAP1 PUSH1 0x4 ADD PUSH2 0x1206 JUMP JUMPDEST SWAP3 PUSH2 0x144 CALLDATALOAD PUSH1 0x1 PUSH1 0x1 PUSH1 0x40 SHL SUB DUP2 GT PUSH2 0x222 JUMPI PUSH2 0x43D SWAP1 CALLDATASIZE SWAP1 PUSH1 0x4 ADD PUSH2 0x1206 JUMP JUMPDEST SWAP5 PUSH2 0x164 CALLDATALOAD PUSH1 0x1 PUSH1 0x1 PUSH1 0x40 SHL SUB DUP2 GT PUSH2 0x222 JUMPI PUSH2 0x45E SWAP1 CALLDATASIZE SWAP1 PUSH1 0x4 ADD PUSH2 0x1206 JUMP JUMPDEST SWAP9 PUSH1 0x2 SLOAD CALLVALUE SUB PUSH2 0x1071 JUMPI CALLER PUSH0 MSTORE PUSH1 0x3 PUSH1 0x20 MSTORE PUSH1 0x40 PUSH0 KECCAK256 SLOAD ISZERO PUSH2 0x1031 JUMPI JUMPDEST PUSH1 0x40 MLOAD SWAP9 PUSH2 0x488 DUP11 PUSH2 0x11C9 JUMP JUMPDEST CALLER DUP11 MSTORE PUSH1 0x20 DUP11 ADD SWAP9 DUP10 MSTORE PUSH1 0x40 DUP11 ADD SWAP1 PUSH1 0x24 CALLDATALOAD DUP3 MSTORE PUSH1 0x60 DUP12 ADD SWAP1 DUP2 MSTORE PUSH1 0x80 DUP12 ADD SWAP2 PUSH1 0x64 CALLDATALOAD DUP4 MSTORE PUSH1 0xA0 DUP13 ADD SWAP4 DUP5 MSTORE PUSH1 0xC0 DUP13 ADD SWAP5 DUP6 MSTORE PUSH1 0xE0 DUP13 ADD SWAP6 DUP7 MSTORE PUSH2 0x100 DUP13 ADD SWAP7 DUP8 MSTORE PUSH2 0x120 DUP13 ADD SWAP8 DUP9 MSTORE PUSH2 0x140 DUP13 ADD SWAP9 DUP10 MSTORE PUSH2 0x160 DUP13 ADD SWAP10 DUP11 MSTORE PUSH2 0x180 DUP13 ADD SWAP13 DUP14 MSTORE PUSH2 0x1A0 DUP13 ADD SWAP11 TIMESTAMP DUP13 MSTORE CALLER PUSH0 MSTORE PUSH1 0x3 PUSH1 0x20 MSTORE PUSH1 0x40 PUSH0 KECCAK256 DUP1 SLOAD PUSH1 0x1 PUSH1 0x40 SHL DUP2 LT ISZERO PUSH2 0x95C JUMPI PUSH2 0x51C SWAP2 PUSH1 0x1 DUP3 ADD DUP2 SSTORE PUSH2 0x1473 JUMP JUMPDEST SWAP14 SWAP1 SWAP14 PUSH2 0x101E JUMPI MLOAD DUP14 SLOAD PUSH1 0x1 PUSH1 0x1 PUSH1 0xA0 SHL SUB NOT AND PUSH1 0x1 PUSH1 0x1 PUSH1 0xA0 SHL SUB SWAP2 SWAP1 SWAP2 AND OR DUP14 SSTORE MLOAD DUP1 MLOAD PUSH1 0x1 DUP15 ADD SWAP2 PUSH1 0x1 PUSH1 0x1 PUSH1 0x40 SHL SUB DUP3 GT PUSH2 0x95C JUMPI DUP2 SWAP1 PUSH2 0x561 DUP5 SLOAD PUSH2 0x148C JUMP JUMPDEST PUSH1 0x1F DUP2 GT PUSH2 0xFCE JUMPI JUMPDEST POP PUSH1 0x20 SWAP1 PUSH1 0x1F DUP4 GT PUSH1 0x1 EQ PUSH2 0xF6B JUMPI PUSH0 SWAP3 PUSH2 0xF60 JUMPI JUMPDEST POP POP DUP2 PUSH1 0x1 SHL SWAP2 PUSH0 NOT SWAP1 PUSH1 0x3 SHL SHR NOT AND OR SWAP1 SSTORE JUMPDEST MLOAD PUSH1 0x2 DUP13 ADD SSTORE MLOAD DUP1 MLOAD PUSH1 0x3 DUP13 ADD SWAP2 PUSH1 0x1 PUSH1 0x1 PUSH1 0x40 SHL SUB DUP3 GT PUSH2 0x95C JUMPI DUP2 SWAP1 PUSH2 0x5BC DUP5 SLOAD PUSH2 0x148C JUMP JUMPDEST PUSH1 0x1F DUP2 GT PUSH2 0xF10 JUMPI JUMPDEST POP PUSH1 0x20 SWAP1 PUSH1 0x1F DUP4 GT PUSH1 0x1 EQ PUSH2 0xEAD JUMPI PUSH0 SWAP3 PUSH2 0xEA2 JUMPI JUMPDEST POP POP DUP2 PUSH1 0x1 SHL SWAP2 PUSH0 NOT SWAP1 PUSH1 0x3 SHL SHR NOT AND OR SWAP1 SSTORE JUMPDEST MLOAD PUSH1 0x4 DUP11 ADD SSTORE MLOAD DUP1 MLOAD PUSH1 0x5 DUP11 ADD SWAP2 PUSH1 0x1 PUSH1 0x1 PUSH1 0x40 SHL SUB DUP3 GT PUSH2 0x95C JUMPI DUP2 SWAP1 PUSH2 0x617 DUP5 SLOAD PUSH2 0x148C JUMP JUMPDEST PUSH1 0x1F DUP2 GT PUSH2 0xE52 JUMPI JUMPDEST POP PUSH1 0x20 SWAP1 PUSH1 0x1F DUP4 GT PUSH1 0x1 EQ PUSH2 0xDEF JUMPI PUSH0 SWAP3 PUSH2 0xDE4 JUMPI JUMPDEST POP POP DUP2 PUSH1 0x1 SHL SWAP2 PUSH0 NOT SWAP1 PUSH1 0x3 SHL SHR NOT AND OR SWAP1 SSTORE JUMPDEST MLOAD DUP1 MLOAD PUSH1 0x6 DUP10 ADD SWAP2 PUSH1 0x1 PUSH1 0x1 PUSH1 0x40 SHL SUB DUP3 GT PUSH2 0x95C JUMPI DUP2 SWAP1 PUSH2 0x66C DUP5 SLOAD PUSH2 0x148C JUMP JUMPDEST PUSH1 0x1F DUP2 GT PUSH2 0xD94 JUMPI JUMPDEST POP PUSH1 0x20 SWAP1 PUSH1 0x1F DUP4 GT PUSH1 0x1 EQ PUSH2 0xD31 JUMPI PUSH0 SWAP3 PUSH2 0xD26 JUMPI JUMPDEST POP POP DUP2 PUSH1 0x1 SHL SWAP2 PUSH0 NOT SWAP1 PUSH1 0x3 SHL SHR NOT AND OR SWAP1 SSTORE JUMPDEST MLOAD DUP1 MLOAD PUSH1 0x7 DUP9 ADD SWAP2 PUSH1 0x1 PUSH1 0x1 PUSH1 0x40 SHL SUB DUP3 GT PUSH2 0x95C JUMPI DUP2 SWAP1 PUSH2 0x6C1 DUP5 SLOAD PUSH2 0x148C JUMP JUMPDEST PUSH1 0x1F DUP2 GT PUSH2 0xCD6 JUMPI JUMPDEST POP PUSH1 0x20 SWAP1 PUSH1 0x1F DUP4 GT PUSH1 0x1 EQ PUSH2 0xC73 JUMPI PUSH0 SWAP3 PUSH2 0xC68 JUMPI JUMPDEST POP POP DUP2 PUSH1 0x1 SHL SWAP2 PUSH0 NOT SWAP1 PUSH1 0x3 SHL SHR NOT AND OR SWAP1 SSTORE JUMPDEST MLOAD DUP1 MLOAD PUSH1 0x8 DUP8 ADD SWAP2 PUSH1 0x1 PUSH1 0x1 PUSH1 0x40 SHL SUB DUP3 GT PUSH2 0x95C JUMPI DUP2 SWAP1 PUSH2 0x716 DUP5 SLOAD PUSH2 0x148C JUMP JUMPDEST PUSH1 0x1F DUP2 GT PUSH2 0xC18 JUMPI JUMPDEST POP PUSH1 0x20 SWAP1 PUSH1 0x1F DUP4 GT PUSH1 0x1 EQ PUSH2 0xBB5 JUMPI PUSH0 SWAP3 PUSH2 0xBAA JUMPI JUMPDEST POP POP DUP2 PUSH1 0x1 SHL SWAP2 PUSH0 NOT SWAP1 PUSH1 0x3 SHL SHR NOT AND OR SWAP1 SSTORE JUMPDEST MLOAD DUP1 MLOAD PUSH1 0x9 DUP7 ADD SWAP2 PUSH1 0x1 PUSH1 0x1 PUSH1 0x40 SHL SUB DUP3 GT PUSH2 0x95C JUMPI DUP2 SWAP1 PUSH2 0x76B DUP5 SLOAD PUSH2 0x148C JUMP JUMPDEST PUSH1 0x1F DUP2 GT PUSH2 0xB5A JUMPI JUMPDEST POP PUSH1 0x20 SWAP1 PUSH1 0x1F DUP4 GT PUSH1 0x1 EQ PUSH2 0xAF7 JUMPI PUSH0 SWAP3 PUSH2 0xAEC JUMPI JUMPDEST POP POP DUP2 PUSH1 0x1 SHL SWAP2 PUSH0 NOT SWAP1 PUSH1 0x3 SHL SHR NOT AND OR SWAP1 SSTORE JUMPDEST MLOAD DUP1 MLOAD PUSH1 0xA DUP6 ADD SWAP2 PUSH1 0x1 PUSH1 0x1 PUSH1 0x40 SHL SUB DUP3 GT PUSH2 0x95C JUMPI DUP2 SWAP1 PUSH2 0x7C0 DUP5 SLOAD PUSH2 0x148C JUMP JUMPDEST PUSH1 0x1F DUP2 GT PUSH2 0xA9C JUMPI JUMPDEST POP PUSH1 0x20 SWAP1 PUSH1 0x1F DUP4 GT PUSH1 0x1 EQ PUSH2 0xA39 JUMPI PUSH0 SWAP3 PUSH2 0xA2E JUMPI JUMPDEST POP POP DUP2 PUSH1 0x1 SHL SWAP2 PUSH0 NOT SWAP1 PUSH1 0x3 SHL SHR NOT AND OR SWAP1 SSTORE JUMPDEST MLOAD DUP1 MLOAD PUSH1 0xB DUP5 ADD SWAP2 PUSH1 0x1 PUSH1 0x1 PUSH1 0x40 SHL SUB DUP3 GT PUSH2 0x95C JUMPI DUP2 SWAP1 PUSH2 0x815 DUP5 SLOAD PUSH2 0x148C JUMP JUMPDEST PUSH1 0x1F DUP2 GT PUSH2 0x9DE JUMPI JUMPDEST POP PUSH1 0x20 SWAP1 PUSH1 0x1F DUP4 GT PUSH1 0x1 EQ PUSH2 0x97B JUMPI PUSH0 SWAP3 PUSH2 0x970 JUMPI JUMPDEST POP POP DUP2 PUSH1 0x1 SHL SWAP2 PUSH0 NOT SWAP1 PUSH1 0x3 SHL SHR NOT AND OR SWAP1 SSTORE JUMPDEST PUSH1 0xC DUP3 ADD SWAP3 MLOAD SWAP3 DUP4 MLOAD PUSH1 0x1 PUSH1 0x1 PUSH1 0x40 SHL SUB DUP2 GT PUSH2 0x95C JUMPI PUSH2 0x869 DUP3 SLOAD PUSH2 0x148C JUMP JUMPDEST PUSH1 0x1F DUP2 GT PUSH2 0x917 JUMPI JUMPDEST POP PUSH1 0x20 PUSH1 0x1F DUP3 GT PUSH1 0x1 EQ PUSH2 0x8B2 JUMPI DUP2 SWAP1 PUSH1 0xD SWAP6 SWAP7 PUSH0 SWAP3 PUSH2 0x8A7 JUMPI JUMPDEST POP POP DUP2 PUSH1 0x1 SHL SWAP2 PUSH0 NOT SWAP1 PUSH1 0x3 SHL SHR NOT AND OR SWAP1 SSTORE JUMPDEST MLOAD SWAP2 ADD SSTORE STOP JUMPDEST ADD MLOAD SWAP1 POP DUP7 DUP1 PUSH2 0x88D JUMP JUMPDEST PUSH1 0x1F NOT DUP3 AND SWAP6 DUP4 PUSH0 MSTORE DUP2 PUSH0 KECCAK256 SWAP7 PUSH0 JUMPDEST DUP2 DUP2 LT PUSH2 0x8FF JUMPI POP SWAP2 PUSH1 0xD SWAP7 SWAP8 SWAP2 DUP5 PUSH1 0x1 SWAP6 SWAP5 LT PUSH2 0x8E7 JUMPI JUMPDEST POP POP POP DUP2 SHL ADD SWAP1 SSTORE PUSH2 0x8A1 JUMP JUMPDEST ADD MLOAD PUSH0 NOT PUSH1 0xF8 DUP5 PUSH1 0x3 SHL AND SHR NOT AND SWAP1 SSTORE DUP7 DUP1 DUP1 PUSH2 0x8DA JUMP JUMPDEST DUP4 DUP4 ADD MLOAD DUP10 SSTORE PUSH1 0x1 SWAP1 SWAP9 ADD SWAP8 PUSH1 0x20 SWAP4 DUP5 ADD SWAP4 ADD PUSH2 0x8C1 JUMP JUMPDEST DUP3 PUSH0 MSTORE PUSH1 0x20 PUSH0 KECCAK256 PUSH1 0x1F DUP4 ADD PUSH1 0x5 SHR DUP2 ADD SWAP2 PUSH1 0x20 DUP5 LT PUSH2 0x952 JUMPI JUMPDEST PUSH1 0x1F ADD PUSH1 0x5 SHR ADD SWAP1 JUMPDEST DUP2 DUP2 LT PUSH2 0x947 JUMPI POP PUSH2 0x872 JUMP JUMPDEST PUSH0 DUP2 SSTORE PUSH1 0x1 ADD PUSH2 0x93A JUMP JUMPDEST SWAP1 SWAP2 POP DUP2 SWAP1 PUSH2 0x931 JUMP JUMPDEST PUSH4 0x4E487B71 PUSH1 0xE0 SHL PUSH0 MSTORE PUSH1 0x41 PUSH1 0x4 MSTORE PUSH1 0x24 PUSH0 REVERT JUMPDEST ADD MLOAD SWAP1 POP DUP7 DUP1 PUSH2 0x834 JUMP JUMPDEST PUSH0 DUP6 DUP2 MSTORE DUP3 DUP2 KECCAK256 SWAP4 POP PUSH1 0x1F NOT DUP6 AND SWAP1 JUMPDEST DUP2 DUP2 LT PUSH2 0x9C6 JUMPI POP SWAP1 DUP5 PUSH1 0x1 SWAP6 SWAP5 SWAP4 SWAP3 LT PUSH2 0x9AE JUMPI JUMPDEST POP POP POP DUP2 SHL ADD SWAP1 SSTORE PUSH2 0x848 JUMP JUMPDEST ADD MLOAD PUSH0 NOT PUSH1 0xF8 DUP5 PUSH1 0x3 SHL AND SHR NOT AND SWAP1 SSTORE DUP7 DUP1 DUP1 PUSH2 0x9A1 JUMP JUMPDEST SWAP3 SWAP4 PUSH1 0x20 PUSH1 0x1 DUP2 SWAP3 DUP8 DUP7 ADD MLOAD DUP2 SSTORE ADD SWAP6 ADD SWAP4 ADD PUSH2 0x98B JUMP JUMPDEST SWAP1 SWAP2 POP DUP4 PUSH0 MSTORE PUSH1 0x20 PUSH0 KECCAK256 PUSH1 0x1F DUP5 ADD PUSH1 0x5 SHR DUP2 ADD SWAP2 PUSH1 0x20 DUP6 LT PUSH2 0xA24 JUMPI JUMPDEST SWAP1 PUSH1 0x1F DUP6 SWAP5 SWAP4 SWAP3 ADD PUSH1 0x5 SHR ADD SWAP1 JUMPDEST DUP2 DUP2 LT PUSH2 0xA16 JUMPI POP PUSH2 0x81E JUMP JUMPDEST PUSH0 DUP2 SSTORE DUP5 SWAP4 POP PUSH1 0x1 ADD PUSH2 0xA09 JUMP JUMPDEST SWAP1 SWAP2 POP DUP2 SWAP1 PUSH2 0x9FB JUMP JUMPDEST ADD MLOAD SWAP1 POP DUP8 DUP1 PUSH2 0x7DF JUMP JUMPDEST PUSH0 DUP6 DUP2 MSTORE DUP3 DUP2 KECCAK256 SWAP4 POP PUSH1 0x1F NOT DUP6 AND SWAP1 JUMPDEST DUP2 DUP2 LT PUSH2 0xA84 JUMPI POP SWAP1 DUP5 PUSH1 0x1 SWAP6 SWAP5 SWAP4 SWAP3 LT PUSH2 0xA6C JUMPI JUMPDEST POP POP POP DUP2 SHL ADD SWAP1 SSTORE PUSH2 0x7F3 JUMP JUMPDEST ADD MLOAD PUSH0 NOT PUSH1 0xF8 DUP5 PUSH1 0x3 SHL AND SHR NOT AND SWAP1 SSTORE DUP8 DUP1 DUP1 PUSH2 0xA5F JUMP JUMPDEST SWAP3 SWAP4 PUSH1 0x20 PUSH1 0x1 DUP2 SWAP3 DUP8 DUP7 ADD MLOAD DUP2 SSTORE ADD SWAP6 ADD SWAP4 ADD PUSH2 0xA49 JUMP JUMPDEST SWAP1 SWAP2 POP DUP4 PUSH0 MSTORE PUSH1 0x20 PUSH0 KECCAK256 PUSH1 0x1F DUP5 ADD PUSH1 0x5 SHR DUP2 ADD SWAP2 PUSH1 0x20 DUP6 LT PUSH2 0xAE2 JUMPI JUMPDEST SWAP1 PUSH1 0x1F DUP6 SWAP5 SWAP4 SWAP3 ADD PUSH1 0x5 SHR ADD SWAP1 JUMPDEST DUP2 DUP2 LT PUSH2 0xAD4 JUMPI POP PUSH2 0x7C9 JUMP JUMPDEST PUSH0 DUP2 SSTORE DUP5 SWAP4 POP PUSH1 0x1 ADD PUSH2 0xAC7 JUMP JUMPDEST SWAP1 SWAP2 POP DUP2 SWAP1 PUSH2 0xAB9 JUMP JUMPDEST ADD MLOAD SWAP1 POP DUP9 DUP1 PUSH2 0x78A JUMP JUMPDEST PUSH0 DUP6 DUP2 MSTORE DUP3 DUP2 KECCAK256 SWAP4 POP PUSH1 0x1F NOT DUP6 AND SWAP1 JUMPDEST DUP2 DUP2 LT PUSH2 0xB42 JUMPI POP SWAP1 DUP5 PUSH1 0x1 SWAP6 SWAP5 SWAP4 SWAP3 LT PUSH2 0xB2A JUMPI JUMPDEST POP POP POP DUP2 SHL ADD SWAP1 SSTORE PUSH2 0x79E JUMP JUMPDEST ADD MLOAD PUSH0 NOT PUSH1 0xF8 DUP5 PUSH1 0x3 SHL AND SHR NOT AND SWAP1 SSTORE DUP9 DUP1 DUP1 PUSH2 0xB1D JUMP JUMPDEST SWAP3 SWAP4 PUSH1 0x20 PUSH1 0x1 DUP2 SWAP3 DUP8 DUP7 ADD MLOAD DUP2 SSTORE ADD SWAP6 ADD SWAP4 ADD PUSH2 0xB07 JUMP JUMPDEST SWAP1 SWAP2 POP DUP4 PUSH0 MSTORE PUSH1 0x20 PUSH0 KECCAK256 PUSH1 0x1F DUP5 ADD PUSH1 0x5 SHR DUP2 ADD SWAP2 PUSH1 0x20 DUP6 LT PUSH2 0xBA0 JUMPI JUMPDEST SWAP1 PUSH1 0x1F DUP6 SWAP5 SWAP4 SWAP3 ADD PUSH1 0x5 SHR ADD SWAP1 JUMPDEST DUP2 DUP2 LT PUSH2 0xB92 JUMPI POP PUSH2 0x774 JUMP JUMPDEST PUSH0 DUP2 SSTORE DUP5 SWAP4 POP PUSH1 0x1 ADD PUSH2 0xB85 JUMP JUMPDEST SWAP1 SWAP2 POP DUP2 SWAP1 PUSH2 0xB77 JUMP JUMPDEST ADD MLOAD SWAP1 POP DUP10 DUP1 PUSH2 0x735 JUMP JUMPDEST PUSH0 DUP6 DUP2 MSTORE DUP3 DUP2 KECCAK256 SWAP4 POP PUSH1 0x1F NOT DUP6 AND SWAP1 JUMPDEST DUP2 DUP2 LT PUSH2 0xC00 JUMPI POP SWAP1 DUP5 PUSH1 0x1 SWAP6 SWAP5 SWAP4 SWAP3 LT PUSH2 0xBE8 JUMPI JUMPDEST POP POP POP DUP2 SHL ADD SWAP1 SSTORE PUSH2 0x749 JUMP JUMPDEST ADD MLOAD PUSH0 NOT PUSH1 0xF8 DUP5 PUSH1 0x3 SHL AND SHR NOT AND SWAP1 SSTORE DUP10 DUP1 DUP1 PUSH2 0xBDB JUMP JUMPDEST SWAP3 SWAP4 PUSH1 0x20 PUSH1 0x1 DUP2 SWAP3 DUP8 DUP7 ADD MLOAD DUP2 SSTORE ADD SWAP6 ADD SWAP4 ADD PUSH2 0xBC5 JUMP JUMPDEST SWAP1 SWAP2 POP DUP4 PUSH0 MSTORE PUSH1 0x20 PUSH0 KECCAK256 PUSH1 0x1F DUP5 ADD PUSH1 0x5 SHR DUP2 ADD SWAP2 PUSH1 0x20 DUP6 LT PUSH2 0xC5E JUMPI JUMPDEST SWAP1 PUSH1 0x1F DUP6 SWAP5 SWAP4 SWAP3 ADD PUSH1 0x5 SHR ADD SWAP1 JUMPDEST DUP2 DUP2 LT PUSH2 0xC50 JUMPI POP PUSH2 0x71F JUMP JUMPDEST PUSH0 DUP2 SSTORE DUP5 SWAP4 POP PUSH1 0x1 ADD PUSH2 0xC43 JUMP JUMPDEST SWAP1 SWAP2 POP DUP2 SWAP1 PUSH2 0xC35 JUMP JUMPDEST ADD MLOAD SWAP1 POP DUP11 DUP1 PUSH2 0x6E0 JUMP JUMPDEST PUSH0 DUP6 DUP2 MSTORE DUP3 DUP2 KECCAK256 SWAP4 POP PUSH1 0x1F NOT DUP6 AND SWAP1 JUMPDEST DUP2 DUP2 LT PUSH2 0xCBE JUMPI POP SWAP1 DUP5 PUSH1 0x1 SWAP6 SWAP5 SWAP4 SWAP3 LT PUSH2 0xCA6 JUMPI JUMPDEST POP POP POP DUP2 SHL ADD SWAP1 SSTORE PUSH2 0x6F4 JUMP JUMPDEST ADD MLOAD PUSH0 NOT PUSH1 0xF8 DUP5 PUSH1 0x3 SHL AND SHR NOT AND SWAP1 SSTORE DUP11 DUP1 DUP1 PUSH2 0xC99 JUMP JUMPDEST SWAP3 SWAP4 PUSH1 0x20 PUSH1 0x1 DUP2 SWAP3 DUP8 DUP7 ADD MLOAD DUP2 SSTORE ADD SWAP6 ADD SWAP4 ADD PUSH2 0xC83 JUMP JUMPDEST SWAP1 SWAP2 POP DUP4 PUSH0 MSTORE PUSH1 0x20 PUSH0 KECCAK256 PUSH1 0x1F DUP5 ADD PUSH1 0x5 SHR DUP2 ADD SWAP2 PUSH1 0x20 DUP6 LT PUSH2 0xD1C JUMPI JUMPDEST SWAP1 PUSH1 0x1F DUP6 SWAP5 SWAP4 SWAP3 ADD PUSH1 0x5 SHR ADD SWAP1 JUMPDEST DUP2 DUP2 LT PUSH2 0xD0E JUMPI POP PUSH2 0x6CA JUMP JUMPDEST PUSH0 DUP2 SSTORE DUP5 SWAP4 POP PUSH1 0x1 ADD PUSH2 0xD01 JUMP JUMPDEST SWAP1 SWAP2 POP DUP2 SWAP1 PUSH2 0xCF3 JUMP JUMPDEST ADD MLOAD SWAP1 POP DUP12 DUP1 PUSH2 0x68B JUMP JUMPDEST PUSH0 DUP6 DUP2 MSTORE DUP3 DUP2 KECCAK256 SWAP4 POP PUSH1 0x1F NOT DUP6 AND SWAP1 JUMPDEST DUP2 DUP2 LT PUSH2 0xD7C JUMPI POP SWAP1 DUP5 PUSH1 0x1 SWAP6 SWAP5 SWAP4 SWAP3 LT PUSH2 0xD64 JUMPI JUMPDEST POP POP POP DUP2 SHL ADD SWAP1 SSTORE PUSH2 0x69F JUMP JUMPDEST ADD MLOAD PUSH0 NOT PUSH1 0xF8 DUP5 PUSH1 0x3 SHL AND SHR NOT AND SWAP1 SSTORE DUP12 DUP1 DUP1 PUSH2 0xD57 JUMP JUMPDEST SWAP3 SWAP4 PUSH1 0x20 PUSH1 0x1 DUP2 SWAP3 DUP8 DUP7 ADD MLOAD DUP2 SSTORE ADD SWAP6 ADD SWAP4 ADD PUSH2 0xD41 JUMP JUMPDEST SWAP1 SWAP2 POP DUP4 PUSH0 MSTORE PUSH1 0x20 PUSH0 KECCAK256 PUSH1 0x1F DUP5 ADD PUSH1 0x5 SHR DUP2 ADD SWAP2 PUSH1 0x20 DUP6 LT PUSH2 0xDDA JUMPI JUMPDEST SWAP1 PUSH1 0x1F DUP6 SWAP5 SWAP4 SWAP3 ADD PUSH1 0x5 SHR ADD SWAP1 JUMPDEST DUP2 DUP2 LT PUSH2 0xDCC JUMPI POP PUSH2 0x675 JUMP JUMPDEST PUSH0 DUP2 SSTORE DUP5 SWAP4 POP PUSH1 0x1 ADD PUSH2 0xDBF JUMP JUMPDEST SWAP1 SWAP2 POP DUP2 SWAP1 PUSH2 0xDB1 JUMP JUMPDEST ADD MLOAD SWAP1 POP DUP13 DUP1 PUSH2 0x636 JUMP JUMPDEST PUSH0 DUP6 DUP2 MSTORE DUP3 DUP2 KECCAK256 SWAP4 POP PUSH1 0x1F NOT DUP6 AND SWAP1 JUMPDEST DUP2 DUP2 LT PUSH2 0xE3A JUMPI POP SWAP1 DUP5 PUSH1 0x1 SWAP6 SWAP5 SWAP4 SWAP3 LT PUSH2 0xE22 JUMPI JUMPDEST POP POP POP DUP2 SHL ADD SWAP1 SSTORE PUSH2 0x64A JUMP JUMPDEST ADD MLOAD PUSH0 NOT PUSH1 0xF8 DUP5 PUSH1 0x3 SHL AND SHR NOT AND SWAP1 SSTORE DUP13 DUP1 DUP1 PUSH2 0xE15 JUMP JUMPDEST SWAP3 SWAP4 PUSH1 0x20 PUSH1 0x1 DUP2 SWAP3 DUP8 DUP7 ADD MLOAD DUP2 SSTORE ADD SWAP6 ADD SWAP4 ADD PUSH2 0xDFF JUMP JUMPDEST SWAP1 SWAP2 POP DUP4 PUSH0 MSTORE PUSH1 0x20 PUSH0 KECCAK256 PUSH1 0x1F DUP5 ADD PUSH1 0x5 SHR DUP2 ADD SWAP2 PUSH1 0x20 DUP6 LT PUSH2 0xE98 JUMPI JUMPDEST SWAP1 PUSH1 0x1F DUP6 SWAP5 SWAP4 SWAP3 ADD PUSH1 0x5 SHR ADD SWAP1 JUMPDEST DUP2 DUP2 LT PUSH2 0xE8A JUMPI POP PUSH2 0x620 JUMP JUMPDEST PUSH0 DUP2 SSTORE DUP5 SWAP4 POP PUSH1 0x1 ADD PUSH2 0xE7D JUMP JUMPDEST SWAP1 SWAP2 POP DUP2 SWAP1 PUSH2 0xE6F JUMP JUMPDEST ADD MLOAD SWAP1 POP DUP15 DUP1 PUSH2 0x5DB JUMP JUMPDEST PUSH0 DUP6 DUP2 MSTORE DUP3 DUP2 KECCAK256 SWAP4 POP PUSH1 0x1F NOT DUP6 AND SWAP1 JUMPDEST DUP2 DUP2 LT PUSH2 0xEF8 JUMPI POP SWAP1 DUP5 PUSH1 0x1 SWAP6 SWAP5 SWAP4 SWAP3 LT PUSH2 0xEE0 JUMPI JUMPDEST POP POP POP DUP2 SHL ADD SWAP1 SSTORE PUSH2 0x5EF JUMP JUMPDEST ADD MLOAD PUSH0 NOT PUSH1 0xF8 DUP5 PUSH1 0x3 SHL AND SHR NOT AND SWAP1 SSTORE DUP15 DUP1 DUP1 PUSH2 0xED3 JUMP JUMPDEST SWAP3 SWAP4 PUSH1 0x20 PUSH1 0x1 DUP2 SWAP3 DUP8 DUP7 ADD MLOAD DUP2 SSTORE ADD SWAP6 ADD SWAP4 ADD PUSH2 0xEBD JUMP JUMPDEST SWAP1 SWAP2 POP DUP4 PUSH0 MSTORE PUSH1 0x20 PUSH0 KECCAK256 PUSH1 0x1F DUP5 ADD PUSH1 0x5 SHR DUP2 ADD SWAP2 PUSH1 0x20 DUP6 LT PUSH2 0xF56 JUMPI JUMPDEST SWAP1 PUSH1 0x1F DUP6 SWAP5 SWAP4 SWAP3 ADD PUSH1 0x5 SHR ADD SWAP1 JUMPDEST DUP2 DUP2 LT PUSH2 0xF48 JUMPI POP PUSH2 0x5C5 JUMP JUMPDEST PUSH0 DUP2 SSTORE DUP5 SWAP4 POP PUSH1 0x1 ADD PUSH2 0xF3B JUMP JUMPDEST SWAP1 SWAP2 POP DUP2 SWAP1 PUSH2 0xF2D JUMP JUMPDEST ADD MLOAD SWAP1 POP PUSH0 DUP1 PUSH2 0x580 JUMP JUMPDEST PUSH0 DUP6 DUP2 MSTORE DUP3 DUP2 KECCAK256 SWAP4 POP PUSH1 0x1F NOT DUP6 AND SWAP1 JUMPDEST DUP2 DUP2 LT PUSH2 0xFB6 JUMPI POP SWAP1 DUP5 PUSH1 0x1 SWAP6 SWAP5 SWAP4 SWAP3 LT PUSH2 0xF9E JUMPI JUMPDEST POP POP POP DUP2 SHL ADD SWAP1 SSTORE PUSH2 0x594 JUMP JUMPDEST ADD MLOAD PUSH0 NOT PUSH1 0xF8 DUP5 PUSH1 0x3 SHL AND SHR NOT AND SWAP1 SSTORE PUSH0 DUP1 DUP1 PUSH2 0xF91 JUMP JUMPDEST SWAP3 SWAP4 PUSH1 0x20 PUSH1 0x1 DUP2 SWAP3 DUP8 DUP7 ADD MLOAD DUP2 SSTORE ADD SWAP6 ADD SWAP4 ADD PUSH2 0xF7B JUMP JUMPDEST SWAP1 SWAP2 POP DUP4 PUSH0 MSTORE PUSH1 0x20 PUSH0 KECCAK256 PUSH1 0x1F DUP5 ADD PUSH1 0x5 SHR DUP2 ADD SWAP2 PUSH1 0x20 DUP6 LT PUSH2 0x1014 JUMPI JUMPDEST SWAP1 PUSH1 0x1F DUP6 SWAP5 SWAP4 SWAP3 ADD PUSH1 0x5 SHR ADD SWAP1 JUMPDEST DUP2 DUP2 LT PUSH2 0x1006 JUMPI POP PUSH2 0x56A JUMP JUMPDEST PUSH0 DUP2 SSTORE DUP5 SWAP4 POP PUSH1 0x1 ADD PUSH2 0xFF9 JUMP JUMPDEST SWAP1 SWAP2 POP DUP2 SWAP1 PUSH2 0xFEB JUMP JUMPDEST PUSH4 0x4E487B71 PUSH1 0xE0 SHL PUSH0 MSTORE PUSH0 PUSH1 0x4 MSTORE PUSH1 0x24 PUSH0 REVERT JUMPDEST PUSH1 0x1 SLOAD PUSH1 0x1 PUSH1 0x40 SHL DUP2 LT ISZERO PUSH2 0x95C JUMPI DUP1 PUSH1 0x1 PUSH2 0x1050 SWAP3 ADD PUSH1 0x1 SSTORE PUSH2 0x1447 JUMP JUMPDEST DUP2 SLOAD PUSH1 0x1 PUSH1 0x1 PUSH1 0xA0 SHL SUB PUSH1 0x3 SWAP3 SWAP1 SWAP3 SHL SWAP2 DUP3 SHL NOT AND CALLER SWAP1 SWAP2 SHL OR SWAP1 SSTORE PUSH2 0x47B JUMP JUMPDEST PUSH1 0x40 MLOAD PUSH3 0x461BCD PUSH1 0xE5 SHL DUP2 MSTORE PUSH1 0x20 PUSH1 0x4 DUP3 ADD MSTORE PUSH1 0x10 PUSH1 0x24 DUP3 ADD MSTORE PUSH16 0x125B98DBDC9C9958DD08105B5BDD5B9D PUSH1 0x82 SHL PUSH1 0x44 DUP3 ADD MSTORE PUSH1 0x64 SWAP1 REVERT JUMPDEST CALLVALUE PUSH2 0x222 JUMPI PUSH0 CALLDATASIZE PUSH1 0x3 NOT ADD SLT PUSH2 0x222 JUMPI PUSH1 0x20 PUSH1 0x2 SLOAD PUSH1 0x40 MLOAD SWAP1 DUP2 MSTORE RETURN JUMPDEST CALLVALUE PUSH2 0x222 JUMPI PUSH0 CALLDATASIZE PUSH1 0x3 NOT ADD SLT PUSH2 0x222 JUMPI PUSH0 SLOAD PUSH1 0x40 MLOAD PUSH1 0x1 PUSH1 0x1 PUSH1 0xA0 SHL SUB SWAP1 SWAP2 AND DUP2 MSTORE PUSH1 0x20 SWAP1 RETURN JUMPDEST CALLVALUE PUSH2 0x222 JUMPI PUSH0 CALLDATASIZE PUSH1 0x3 NOT ADD SLT PUSH2 0x222 JUMPI PUSH2 0x1111 PUSH1 0x1 DUP1 PUSH1 0xA0 SHL SUB PUSH0 SLOAD AND CALLER EQ PUSH2 0x13F1 JUMP JUMPDEST PUSH1 0x40 MLOAD DUP1 PUSH1 0x20 PUSH1 0x1 SLOAD SWAP3 DUP4 DUP2 MSTORE ADD DUP1 SWAP3 PUSH1 0x1 PUSH0 MSTORE PUSH32 0xB10E2D527612073B26EECDFD717E6A320CF44B4AFAC2B0732D9FCBE2B7FA0CF6 SWAP1 PUSH0 JUMPDEST DUP2 DUP2 LT PUSH2 0x11AA JUMPI POP POP POP DUP2 PUSH2 0x115F SWAP2 SUB DUP3 PUSH2 0x11E5 JUMP JUMPDEST PUSH1 0x40 MLOAD SWAP2 DUP3 SWAP2 PUSH1 0x20 DUP4 ADD SWAP1 PUSH1 0x20 DUP5 MSTORE MLOAD DUP1 SWAP2 MSTORE PUSH1 0x40 DUP4 ADD SWAP2 SWAP1 PUSH0 JUMPDEST DUP2 DUP2 LT PUSH2 0x1188 JUMPI POP POP POP SUB SWAP1 RETURN JUMPDEST DUP3 MLOAD PUSH1 0x1 PUSH1 0x1 PUSH1 0xA0 SHL SUB AND DUP5 MSTORE DUP6 SWAP5 POP PUSH1 0x20 SWAP4 DUP5 ADD SWAP4 SWAP1 SWAP3 ADD SWAP2 PUSH1 0x1 ADD PUSH2 0x117A JUMP JUMPDEST DUP3 SLOAD PUSH1 0x1 PUSH1 0x1 PUSH1 0xA0 SHL SUB AND DUP5 MSTORE PUSH1 0x20 SWAP1 SWAP4 ADD SWAP3 PUSH1 0x1 SWAP3 DUP4 ADD SWAP3 ADD PUSH2 0x1149 JUMP JUMPDEST PUSH2 0x1C0 DUP2 ADD SWAP1 DUP2 LT PUSH1 0x1 PUSH1 0x1 PUSH1 0x40 SHL SUB DUP3 GT OR PUSH2 0x95C JUMPI PUSH1 0x40 MSTORE JUMP JUMPDEST SWAP1 PUSH1 0x1F DUP1 NOT SWAP2 ADD AND DUP2 ADD SWAP1 DUP2 LT PUSH1 0x1 PUSH1 0x1 PUSH1 0x40 SHL SUB DUP3 GT OR PUSH2 0x95C JUMPI PUSH1 0x40 MSTORE JUMP JUMPDEST DUP2 PUSH1 0x1F DUP3 ADD SLT ISZERO PUSH2 0x222 JUMPI DUP1 CALLDATALOAD SWAP1 PUSH1 0x1 PUSH1 0x1 PUSH1 0x40 SHL SUB DUP3 GT PUSH2 0x95C JUMPI PUSH1 0x40 MLOAD SWAP3 PUSH2 0x123A PUSH1 0x1F DUP5 ADD PUSH1 0x1F NOT AND PUSH1 0x20 ADD DUP6 PUSH2 0x11E5 JUMP JUMPDEST DUP3 DUP5 MSTORE PUSH1 0x20 DUP4 DUP4 ADD ADD GT PUSH2 0x222 JUMPI DUP2 PUSH0 SWAP3 PUSH1 0x20 DUP1 SWAP4 ADD DUP4 DUP7 ADD CALLDATACOPY DUP4 ADD ADD MSTORE SWAP1 JUMP JUMPDEST DUP1 MLOAD DUP1 DUP4 MSTORE PUSH1 0x20 SWAP3 SWAP2 DUP2 SWAP1 DUP5 ADD DUP5 DUP5 ADD MCOPY PUSH0 DUP3 DUP3 ADD DUP5 ADD MSTORE PUSH1 0x1F ADD PUSH1 0x1F NOT AND ADD ADD SWAP1 JUMP JUMPDEST SWAP1 PUSH2 0x1A0 DUP1 PUSH2 0x1389 PUSH2 0x1375 PUSH2 0x1361 PUSH2 0x134D PUSH2 0x1339 PUSH2 0x1325 PUSH2 0x1313 PUSH2 0x1301 PUSH2 0x12E4 DUP12 PUSH1 0x60 DUP15 PUSH1 0x1 DUP1 PUSH1 0xA0 SHL SUB DUP2 MLOAD AND DUP4 MSTORE PUSH2 0x12CA PUSH1 0x20 DUP3 ADD MLOAD PUSH2 0x1C0 PUSH1 0x20 DUP7 ADD MSTORE PUSH2 0x1C0 DUP6 ADD SWAP1 PUSH2 0x125B JUMP JUMPDEST SWAP3 PUSH1 0x40 DUP1 DUP4 ADD MLOAD SWAP2 ADD MSTORE ADD MLOAD DUP14 PUSH1 0x60 DUP2 DUP5 SUB SWAP2 ADD MSTORE PUSH2 0x125B JUMP JUMPDEST PUSH1 0x80 DUP14 ADD MLOAD PUSH1 0x80 DUP14 ADD MSTORE PUSH1 0xA0 DUP14 ADD MLOAD DUP13 PUSH1 0xA0 DUP2 DUP5 SUB SWAP2 ADD MSTORE PUSH2 0x125B JUMP JUMPDEST PUSH1 0xC0 DUP13 ADD MLOAD DUP12 DUP3 SUB PUSH1 0xC0 DUP14 ADD MSTORE PUSH2 0x125B JUMP JUMPDEST PUSH1 0xE0 DUP12 ADD MLOAD DUP11 DUP3 SUB PUSH1 0xE0 DUP13 ADD MSTORE PUSH2 0x125B JUMP JUMPDEST PUSH2 0x100 DUP11 ADD MLOAD DUP10 DUP3 SUB PUSH2 0x100 DUP12 ADD MSTORE PUSH2 0x125B JUMP JUMPDEST PUSH2 0x120 DUP10 ADD MLOAD DUP9 DUP3 SUB PUSH2 0x120 DUP11 ADD MSTORE PUSH2 0x125B JUMP JUMPDEST PUSH2 0x140 DUP9 ADD MLOAD DUP8 DUP3 SUB PUSH2 0x140 DUP10 ADD MSTORE PUSH2 0x125B JUMP JUMPDEST PUSH2 0x160 DUP8 ADD MLOAD DUP7 DUP3 SUB PUSH2 0x160 DUP9 ADD MSTORE PUSH2 0x125B JUMP JUMPDEST PUSH2 0x180 DUP7 ADD MLOAD DUP6 DUP3 SUB PUSH2 0x180 DUP8 ADD MSTORE PUSH2 0x125B JUMP JUMPDEST SWAP4 ADD MLOAD SWAP2 ADD MSTORE SWAP1 JUMP JUMPDEST PUSH1 0x20 DUP2 ADD PUSH1 0x20 DUP3 MSTORE DUP3 MLOAD DUP1 SWAP2 MSTORE PUSH1 0x40 DUP3 ADD SWAP2 PUSH1 0x20 PUSH1 0x40 DUP4 PUSH1 0x5 SHL DUP4 ADD ADD SWAP5 ADD SWAP3 PUSH0 SWAP2 JUMPDEST DUP4 DUP4 LT PUSH2 0x13C4 JUMPI POP POP POP POP POP SWAP1 JUMP JUMPDEST SWAP1 SWAP2 SWAP3 SWAP4 SWAP5 PUSH1 0x20 DUP1 PUSH2 0x13E2 PUSH1 0x1 SWAP4 PUSH1 0x3F NOT DUP7 DUP3 SUB ADD DUP8 MSTORE DUP10 MLOAD PUSH2 0x127F JUMP JUMPDEST SWAP8 ADD SWAP4 ADD SWAP4 ADD SWAP2 SWAP4 SWAP3 SWAP1 PUSH2 0x13B5 JUMP JUMPDEST ISZERO PUSH2 0x13F8 JUMPI JUMP JUMPDEST PUSH1 0x40 MLOAD PUSH3 0x461BCD PUSH1 0xE5 SHL DUP2 MSTORE PUSH1 0x20 PUSH1 0x4 DUP3 ADD MSTORE PUSH1 0x21 PUSH1 0x24 DUP3 ADD MSTORE PUSH32 0x4F6E6C79206F776E65722063616E2063616C6C20746869732066756E6374696F PUSH1 0x44 DUP3 ADD MSTORE PUSH1 0x37 PUSH1 0xF9 SHL PUSH1 0x64 DUP3 ADD MSTORE PUSH1 0x84 SWAP1 REVERT JUMPDEST PUSH1 0x1 SLOAD DUP2 LT ISZERO PUSH2 0x145F JUMPI PUSH1 0x1 PUSH0 MSTORE PUSH1 0x20 PUSH0 KECCAK256 ADD SWAP1 PUSH0 SWAP1 JUMP JUMPDEST PUSH4 0x4E487B71 PUSH1 0xE0 SHL PUSH0 MSTORE PUSH1 0x32 PUSH1 0x4 MSTORE PUSH1 0x24 PUSH0 REVERT JUMPDEST DUP1 SLOAD DUP3 LT ISZERO PUSH2 0x145F JUMPI PUSH0 MSTORE PUSH1 0xE PUSH1 0x20 PUSH0 KECCAK256 SWAP2 MUL ADD SWAP1 PUSH0 SWAP1 JUMP JUMPDEST SWAP1 PUSH1 0x1 DUP3 DUP2 SHR SWAP3 AND DUP1 ISZERO PUSH2 0x14BA JUMPI JUMPDEST PUSH1 0x20 DUP4 LT EQ PUSH2 0x14A6 JUMPI JUMP JUMPDEST PUSH4 0x4E487B71 PUSH1 0xE0 SHL PUSH0 MSTORE PUSH1 0x22 PUSH1 0x4 MSTORE PUSH1 0x24 PUSH0 REVERT JUMPDEST SWAP2 PUSH1 0x7F AND SWAP2 PUSH2 0x149B JUMP JUMPDEST PUSH1 0x1 PUSH1 0x1 PUSH1 0x40 SHL SUB DUP2 GT PUSH2 0x95C JUMPI PUSH1 0x5 SHL PUSH1 0x20 ADD SWAP1 JUMP JUMPDEST SWAP1 PUSH1 0x40 MLOAD SWAP2 DUP3 PUSH0 DUP3 SLOAD SWAP3 PUSH2 0x14EE DUP5 PUSH2 0x148C JUMP JUMPDEST DUP1 DUP5 MSTORE SWAP4 PUSH1 0x1 DUP2 AND SWAP1 DUP2 ISZERO PUSH2 0x1559 JUMPI POP PUSH1 0x1 EQ PUSH2 0x1515 JUMPI JUMPDEST POP PUSH2 0x1513 SWAP3 POP SUB DUP4 PUSH2 0x11E5 JUMP JUMPDEST JUMP JUMPDEST SWAP1 POP PUSH0 SWAP3 SWAP2 SWAP3 MSTORE PUSH1 0x20 PUSH0 KECCAK256 SWAP1 PUSH0 SWAP2 JUMPDEST DUP2 DUP4 LT PUSH2 0x153D JUMPI POP POP SWAP1 PUSH1 0x20 PUSH2 0x1513 SWAP3 DUP3 ADD ADD PUSH0 PUSH2 0x1506 JUMP JUMPDEST PUSH1 0x20 SWAP2 SWAP4 POP DUP1 PUSH1 0x1 SWAP2 SLOAD DUP4 DUP6 DUP10 ADD ADD MSTORE ADD SWAP2 ADD SWAP1 SWAP2 DUP5 SWAP3 PUSH2 0x1524 JUMP JUMPDEST SWAP1 POP PUSH1 0x20 SWAP3 POP PUSH2 0x1513 SWAP5 SWAP2 POP PUSH1 0xFF NOT AND DUP3 DUP5 ADD MSTORE ISZERO ISZERO PUSH1 0x5 SHL DUP3 ADD ADD PUSH0 PUSH2 0x1506 JUMP JUMPDEST SWAP1 PUSH1 0x40 MLOAD PUSH2 0x1588 DUP2 PUSH2 0x11C9 JUMP JUMPDEST DUP3 SLOAD PUSH1 0x1 PUSH1 0x1 PUSH1 0xA0 SHL SUB AND DUP2 MSTORE SWAP2 DUP3 SWAP1 PUSH2 0x1A0 SWAP1 PUSH1 0xD SWAP1 PUSH2 0x15AB PUSH1 0x1 DUP3 ADD PUSH2 0x14DB JUMP JUMPDEST PUSH1 0x20 DUP6 ADD MSTORE PUSH1 0x2 DUP2 ADD SLOAD PUSH1 0x40 DUP6 ADD MSTORE PUSH2 0x15C6 PUSH1 0x3 DUP3 ADD PUSH2 0x14DB JUMP JUMPDEST PUSH1 0x60 DUP6 ADD MSTORE PUSH1 0x4 DUP2 ADD SLOAD PUSH1 0x80 DUP6 ADD MSTORE PUSH2 0x15E1 PUSH1 0x5 DUP3 ADD PUSH2 0x14DB JUMP JUMPDEST PUSH1 0xA0 DUP6 ADD MSTORE PUSH2 0x15F2 PUSH1 0x6 DUP3 ADD PUSH2 0x14DB JUMP JUMPDEST PUSH1 0xC0 DUP6 ADD MSTORE PUSH2 0x1603 PUSH1 0x7 DUP3 ADD PUSH2 0x14DB JUMP JUMPDEST PUSH1 0xE0 DUP6 ADD MSTORE PUSH2 0x1614 PUSH1 0x8 DUP3 ADD PUSH2 0x14DB JUMP JUMPDEST PUSH2 0x100 DUP6 ADD MSTORE PUSH2 0x1626 PUSH1 0x9 DUP3 ADD PUSH2 0x14DB JUMP JUMPDEST PUSH2 0x120 DUP6 ADD MSTORE PUSH2 0x1638 PUSH1 0xA DUP3 ADD PUSH2 0x14DB JUMP JUMPDEST PUSH2 0x140 DUP6 ADD MSTORE PUSH2 0x164A PUSH1 0xB DUP3 ADD PUSH2 0x14DB JUMP JUMPDEST PUSH2 0x160 DUP6 ADD MSTORE PUSH2 0x165C PUSH1 0xC DUP3 ADD PUSH2 0x14DB JUMP JUMPDEST PUSH2 0x180 DUP6 ADD MSTORE ADD SLOAD SWAP2 ADD MSTORE JUMP JUMPDEST PUSH1 0x40 MLOAD SWAP1 PUSH2 0x1676 DUP3 PUSH2 0x11C9 JUMP JUMPDEST PUSH0 PUSH2 0x1A0 DUP4 DUP3 DUP2 MSTORE PUSH1 0x60 PUSH1 0x20 DUP3 ADD MSTORE DUP3 PUSH1 0x40 DUP3 ADD MSTORE PUSH1 0x60 DUP1 DUP3 ADD MSTORE DUP3 PUSH1 0x80 DUP3 ADD MSTORE PUSH1 0x60 PUSH1 0xA0 DUP3 ADD MSTORE PUSH1 0x60 PUSH1 0xC0 DUP3 ADD MSTORE PUSH1 0x60 PUSH1 0xE0 DUP3 ADD MSTORE PUSH1 0x60 PUSH2 0x100 DUP3 ADD MSTORE PUSH1 0x60 PUSH2 0x120 DUP3 ADD MSTORE PUSH1 0x60 PUSH2 0x140 DUP3 ADD MSTORE PUSH1 0x60 PUSH2 0x160 DUP3 ADD MSTORE PUSH1 0x60 PUSH2 0x180 DUP3 ADD MSTORE ADD MSTORE JUMP JUMPDEST DUP1 MLOAD DUP3 LT ISZERO PUSH2 0x145F JUMPI PUSH1 0x20 SWAP2 PUSH1 0x5 SHL ADD ADD SWAP1 JUMP INVALID LOG2 PUSH5 0x6970667358 0x22 SLT KECCAK256 0x2F SWAP9 SWAP4 0xB9 LOG1 PUSH14 0x7B35BE6F7A1DA6766C59E463DEEE KECCAK256 0xD TLOAD MCOPY 0x2A 0xE4 0x2A 0xCC PUSH10 0x738D2564736F6C634300 ADDMOD BYTE STOP CALLER "
		},
		"gasEstimates": {
			"creation": {
				"codeDepositCost": "1184400",
				"executionCost": "infinite",
				"totalCost": "infinite"
			},
			"external": {
				"fillingFee()": "2292",
				"getAllFilers()": "infinite",
				"getAllFilings(address)": "infinite",
				"getFiling(uint256)": "infinite",
				"getFilingByOwner(address)": "infinite",
				"owner()": "2293",
				"submitFilingInfo(string,uint256,string,uint256,string,string,string,string,string,string,string,string)": "infinite"
			}
		},
		"methodIdentifiers": {
			"fillingFee()": "9426b5cf",
			"getAllFilers()": "4434dabb",
			"getAllFilings(address)": "fe20c9fd",
			"getFiling(uint256)": "eb1c1412",
			"getFilingByOwner(address)": "e2ec869c",
			"owner()": "8da5cb5b",
			"submitFilingInfo(string,uint256,string,uint256,string,string,string,string,string,string,string,string)": "af600d3e"
		}
	},
	"abi": [
		{
			"inputs": [
				{
					"internalType": "uint256",
					"name": "_fillingFee",
					"type": "uint256"
				}
			],
			"stateMutability": "nonpayable",
			"type": "constructor"
		},
		{
			"inputs": [],
			"name": "fillingFee",
			"outputs": [
				{
					"internalType": "uint256",
					"name": "",
					"type": "uint256"
				}
			],
			"stateMutability": "view",
			"type": "function"
		},
		{
			"inputs": [],
			"name": "getAllFilers",
			"outputs": [
				{
					"internalType": "address[]",
					"name": "",
					"type": "address[]"
				}
			],
			"stateMutability": "view",
			"type": "function"
		},
		{
			"inputs": [
				{
					"internalType": "address",
					"name": "_owner",
					"type": "address"
				}
			],
			"name": "getAllFilings",
			"outputs": [
				{
					"components": [
						{
							"internalType": "address",
							"name": "filingOwner",
							"type": "address"
						},
						{
							"internalType": "string",
							"name": "securedInterestType",
							"type": "string"
						},
						{
							"internalType": "uint256",
							"name": "partySize",
							"type": "uint256"
						},
						{
							"internalType": "string",
							"name": "contractNumber",
							"type": "string"
						},
						{
							"internalType": "uint256",
							"name": "valueOfLoan",
							"type": "uint256"
						},
						{
							"internalType": "string",
							"name": "securingPartyType",
							"type": "string"
						},
						{
							"internalType": "string",
							"name": "securingPartyFullname",
							"type": "string"
						},
						{
							"internalType": "string",
							"name": "securingPartyNationalID",
							"type": "string"
						},
						{
							"internalType": "string",
							"name": "securedPartyName",
							"type": "string"
						},
						{
							"internalType": "string",
							"name": "securedPartyAddress",
							"type": "string"
						},
						{
							"internalType": "string",
							"name": "securedPartyCountry",
							"type": "string"
						},
						{
							"internalType": "string",
							"name": "collateralCategory",
							"type": "string"
						},
						{
							"internalType": "string",
							"name": "collateralDescription",
							"type": "string"
						},
						{
							"internalType": "uint256",
							"name": "timestamp",
							"type": "uint256"
						}
					],
					"internalType": "struct Filing.FilingInfo[]",
					"name": "",
					"type": "tuple[]"
				}
			],
			"stateMutability": "view",
			"type": "function"
		},
		{
			"inputs": [
				{
					"internalType": "uint256",
					"name": "_id",
					"type": "uint256"
				}
			],
			"name": "getFiling",
			"outputs": [
				{
					"components": [
						{
							"internalType": "address",
							"name": "filingOwner",
							"type": "address"
						},
						{
							"internalType": "string",
							"name": "securedInterestType",
							"type": "string"
						},
						{
							"internalType": "uint256",
							"name": "partySize",
							"type": "uint256"
						},
						{
							"internalType": "string",
							"name": "contractNumber",
							"type": "string"
						},
						{
							"internalType": "uint256",
							"name": "valueOfLoan",
							"type": "uint256"
						},
						{
							"internalType": "string",
							"name": "securingPartyType",
							"type": "string"
						},
						{
							"internalType": "string",
							"name": "securingPartyFullname",
							"type": "string"
						},
						{
							"internalType": "string",
							"name": "securingPartyNationalID",
							"type": "string"
						},
						{
							"internalType": "string",
							"name": "securedPartyName",
							"type": "string"
						},
						{
							"internalType": "string",
							"name": "securedPartyAddress",
							"type": "string"
						},
						{
							"internalType": "string",
							"name": "securedPartyCountry",
							"type": "string"
						},
						{
							"internalType": "string",
							"name": "collateralCategory",
							"type": "string"
						},
						{
							"internalType": "string",
							"name": "collateralDescription",
							"type": "string"
						},
						{
							"internalType": "uint256",
							"name": "timestamp",
							"type": "uint256"
						}
					],
					"internalType": "struct Filing.FilingInfo",
					"name": "",
					"type": "tuple"
				}
			],
			"stateMutability": "view",
			"type": "function"
		},
		{
			"inputs": [
				{
					"internalType": "address",
					"name": "_owner",
					"type": "address"
				}
			],
			"name": "getFilingByOwner",
			"outputs": [
				{
					"components": [
						{
							"internalType": "address",
							"name": "filingOwner",
							"type": "address"
						},
						{
							"internalType": "string",
							"name": "securedInterestType",
							"type": "string"
						},
						{
							"internalType": "uint256",
							"name": "partySize",
							"type": "uint256"
						},
						{
							"internalType": "string",
							"name": "contractNumber",
							"type": "string"
						},
						{
							"internalType": "uint256",
							"name": "valueOfLoan",
							"type": "uint256"
						},
						{
							"internalType": "string",
							"name": "securingPartyType",
							"type": "string"
						},
						{
							"internalType": "string",
							"name": "securingPartyFullname",
							"type": "string"
						},
						{
							"internalType": "string",
							"name": "securingPartyNationalID",
							"type": "string"
						},
						{
							"internalType": "string",
							"name": "securedPartyName",
							"type": "string"
						},
						{
							"internalType": "string",
							"name": "securedPartyAddress",
							"type": "string"
						},
						{
							"internalType": "string",
							"name": "securedPartyCountry",
							"type": "string"
						},
						{
							"internalType": "string",
							"name": "collateralCategory",
							"type": "string"
						},
						{
							"internalType": "string",
							"name": "collateralDescription",
							"type": "string"
						},
						{
							"internalType": "uint256",
							"name": "timestamp",
							"type": "uint256"
						}
					],
					"internalType": "struct Filing.FilingInfo[]",
					"name": "",
					"type": "tuple[]"
				}
			],
			"stateMutability": "view",
			"type": "function"
		},
		{
			"inputs": [],
			"name": "owner",
			"outputs": [
				{
					"internalType": "address",
					"name": "",
					"type": "address"
				}
			],
			"stateMutability": "view",
			"type": "function"
		},
		{
			"inputs": [
				{
					"internalType": "string",
					"name": "_securedInterestType",
					"type": "string"
				},
				{
					"internalType": "uint256",
					"name": "_partySize",
					"type": "uint256"
				},
				{
					"internalType": "string",
					"name": "_contractNumber",
					"type": "string"
				},
				{
					"internalType": "uint256",
					"name": "_valueOfLoan",
					"type": "uint256"
				},
				{
					"internalType": "string",
					"name": "_securingPartyType",
					"type": "string"
				},
				{
					"internalType": "string",
					"name": "_securingPartyFullname",
					"type": "string"
				},
				{
					"internalType": "string",
					"name": "_securingPartyNationalID",
					"type": "string"
				},
				{
					"internalType": "string",
					"name": "_securedPartyName",
					"type": "string"
				},
				{
					"internalType": "string",
					"name": "_securedPartyAddress",
					"type": "string"
				},
				{
					"internalType": "string",
					"name": "_securedPartyCountry",
					"type": "string"
				},
				{
					"internalType": "string",
					"name": "_collateralCategory",
					"type": "string"
				},
				{
					"internalType": "string",
					"name": "_collateralDescription",
					"type": "string"
				}
			],
			"name": "submitFilingInfo",
			"outputs": [],
			"stateMutability": "payable",
			"type": "function"
		}
	]
}